{
  "_format": "hh-sol-artifact-1",
  "contractName": "FederatedLearnCommContract",
  "sourceName": "contracts/FederatedLearnCommContract.sol",
  "abi": [
    {
      "anonymous": false,
      "inputs": [
        {
          "indexed": false,
          "internalType": "string",
          "name": "id",
          "type": "string"
        },
        {
          "indexed": false,
          "internalType": "uint256",
          "name": "timestamp",
          "type": "uint256"
        },
        {
          "indexed": false,
          "internalType": "string",
          "name": "event_type",
          "type": "string"
        },
        {
          "indexed": false,
          "internalType": "string",
          "name": "workflow_trace_id",
          "type": "string"
        },
        {
          "indexed": false,
          "internalType": "string",
          "name": "domain",
          "type": "string"
        },
        {
          "indexed": false,
          "internalType": "string",
          "name": "status",
          "type": "string"
        },
        {
          "indexed": false,
          "internalType": "bool",
          "name": "is_encrypted",
          "type": "bool"
        },
        {
          "indexed": false,
          "internalType": "string",
          "name": "body",
          "type": "string"
        }
      ],
      "name": "MessageSent",
      "type": "event"
    },
    {
      "inputs": [
        {
          "internalType": "string",
          "name": "_id",
          "type": "string"
        },
        {
          "internalType": "uint256",
          "name": "_timestamp",
          "type": "uint256"
        },
        {
          "internalType": "string",
          "name": "_event_type",
          "type": "string"
        },
        {
          "internalType": "string",
          "name": "_workflow_trace_id",
          "type": "string"
        },
        {
          "internalType": "string",
          "name": "_domain",
          "type": "string"
        },
        {
          "internalType": "string",
          "name": "_status",
          "type": "string"
        },
        {
          "internalType": "bool",
          "name": "_is_encrypted",
          "type": "bool"
        },
        {
          "internalType": "string",
          "name": "_body",
          "type": "string"
        }
      ],
      "name": "sendMessage",
      "outputs": [],
      "stateMutability": "nonpayable",
      "type": "function"
    }
  ],
  "bytecode": "0x608060405234801561001057600080fd5b5061053c806100206000396000f3fe608060405234801561001057600080fd5b506004361061002b5760003560e01c8063ca0710fd14610030575b600080fd5b61004a60048036038101906100459190610263565b61004c565b005b7f1b0e5b982b1c5cca3354fa7116c0a738730b90b6ac9953d8340bb29c4364027b888888888888888860405161008998979695949392919061045e565b60405180910390a15050505050505050565b6000604051905090565b600080fd5b600080fd5b600080fd5b600080fd5b6000601f19601f8301169050919050565b7f4e487b7100000000000000000000000000000000000000000000000000000000600052604160045260246000fd5b610102826100b9565b810181811067ffffffffffffffff82111715610121576101206100ca565b5b80604052505050565b600061013461009b565b905061014082826100f9565b919050565b600067ffffffffffffffff8211156101605761015f6100ca565b5b610169826100b9565b9050602081019050919050565b82818337600083830152505050565b600061019861019384610145565b61012a565b9050828152602081018484840111156101b4576101b36100b4565b5b6101bf848285610176565b509392505050565b600082601f8301126101dc576101db6100af565b5b81356101ec848260208601610185565b91505092915050565b6000819050919050565b610208816101f5565b811461021357600080fd5b50565b600081359050610225816101ff565b92915050565b60008115159050919050565b6102408161022b565b811461024b57600080fd5b50565b60008135905061025d81610237565b92915050565b600080600080600080600080610100898b031215610284576102836100a5565b5b600089013567ffffffffffffffff8111156102a2576102a16100aa565b5b6102ae8b828c016101c7565b98505060206102bf8b828c01610216565b975050604089013567ffffffffffffffff8111156102e0576102df6100aa565b5b6102ec8b828c016101c7565b965050606089013567ffffffffffffffff81111561030d5761030c6100aa565b5b6103198b828c016101c7565b955050608089013567ffffffffffffffff81111561033a576103396100aa565b5b6103468b828c016101c7565b94505060a089013567ffffffffffffffff811115610367576103666100aa565b5b6103738b828c016101c7565b93505060c06103848b828c0161024e565b92505060e089013567ffffffffffffffff8111156103a5576103a46100aa565b5b6103b18b828c016101c7565b9150509295985092959890939650565b600081519050919050565b600082825260208201905092915050565b60005b838110156103fb5780820151818401526020810190506103e0565b60008484015250505050565b6000610412826103c1565b61041c81856103cc565b935061042c8185602086016103dd565b610435816100b9565b840191505092915050565b610449816101f5565b82525050565b6104588161022b565b82525050565b6000610100820190508181036000830152610479818b610407565b9050610488602083018a610440565b818103604083015261049a8189610407565b905081810360608301526104ae8188610407565b905081810360808301526104c28187610407565b905081810360a08301526104d68186610407565b90506104e560c083018561044f565b81810360e08301526104f78184610407565b9050999850505050505050505056fea26469706673582212202c47e1a71a0fcf538013b651ce0efeef2a24ccafa27c55980e17bb12c75bb54564736f6c63430008180033",
  "linkReferences": {},
  "deployedLinkReferences": {}
}